{
  "contractName": "Marketplace",
  "abi": [
    {
      "inputs": [
        {
          "internalType": "address",
          "name": "tokenAddress",
          "type": "address"
        }
      ],
      "stateMutability": "nonpayable",
      "type": "constructor"
    },
    {
      "anonymous": false,
      "inputs": [
        {
          "indexed": true,
          "internalType": "uint256",
          "name": "id",
          "type": "uint256"
        },
        {
          "indexed": true,
          "internalType": "address",
          "name": "seller",
          "type": "address"
        }
      ],
      "name": "Cancelled",
      "type": "event"
    },
    {
      "anonymous": false,
      "inputs": [
        {
          "indexed": true,
          "internalType": "uint256",
          "name": "id",
          "type": "uint256"
        },
        {
          "indexed": true,
          "internalType": "address",
          "name": "seller",
          "type": "address"
        },
        {
          "indexed": false,
          "internalType": "string",
          "name": "itemName",
          "type": "string"
        },
        {
          "indexed": false,
          "internalType": "uint256",
          "name": "price",
          "type": "uint256"
        }
      ],
      "name": "Listed",
      "type": "event"
    },
    {
      "anonymous": false,
      "inputs": [
        {
          "indexed": true,
          "internalType": "uint256",
          "name": "id",
          "type": "uint256"
        },
        {
          "indexed": true,
          "internalType": "address",
          "name": "buyer",
          "type": "address"
        },
        {
          "indexed": true,
          "internalType": "address",
          "name": "seller",
          "type": "address"
        },
        {
          "indexed": false,
          "internalType": "uint256",
          "name": "price",
          "type": "uint256"
        }
      ],
      "name": "Purchased",
      "type": "event"
    },
    {
      "inputs": [
        {
          "internalType": "uint256",
          "name": "",
          "type": "uint256"
        }
      ],
      "name": "listings",
      "outputs": [
        {
          "internalType": "uint256",
          "name": "id",
          "type": "uint256"
        },
        {
          "internalType": "address",
          "name": "seller",
          "type": "address"
        },
        {
          "internalType": "string",
          "name": "itemName",
          "type": "string"
        },
        {
          "internalType": "uint256",
          "name": "price",
          "type": "uint256"
        },
        {
          "internalType": "bool",
          "name": "active",
          "type": "bool"
        }
      ],
      "stateMutability": "view",
      "type": "function"
    },
    {
      "inputs": [],
      "name": "nextListingId",
      "outputs": [
        {
          "internalType": "uint256",
          "name": "",
          "type": "uint256"
        }
      ],
      "stateMutability": "view",
      "type": "function"
    },
    {
      "inputs": [],
      "name": "token",
      "outputs": [
        {
          "internalType": "contract IERC20",
          "name": "",
          "type": "address"
        }
      ],
      "stateMutability": "view",
      "type": "function"
    },
    {
      "inputs": [
        {
          "internalType": "string",
          "name": "itemName",
          "type": "string"
        },
        {
          "internalType": "uint256",
          "name": "price",
          "type": "uint256"
        }
      ],
      "name": "createListing",
      "outputs": [],
      "stateMutability": "nonpayable",
      "type": "function"
    },
    {
      "inputs": [
        {
          "internalType": "uint256",
          "name": "listingId",
          "type": "uint256"
        }
      ],
      "name": "buy",
      "outputs": [],
      "stateMutability": "nonpayable",
      "type": "function"
    },
    {
      "inputs": [
        {
          "internalType": "uint256",
          "name": "listingId",
          "type": "uint256"
        }
      ],
      "name": "cancel",
      "outputs": [],
      "stateMutability": "nonpayable",
      "type": "function"
    },
    {
      "inputs": [
        {
          "internalType": "uint256",
          "name": "listingId",
          "type": "uint256"
        }
      ],
      "name": "getListing",
      "outputs": [
        {
          "components": [
            {
              "internalType": "uint256",
              "name": "id",
              "type": "uint256"
            },
            {
              "internalType": "address",
              "name": "seller",
              "type": "address"
            },
            {
              "internalType": "string",
              "name": "itemName",
              "type": "string"
            },
            {
              "internalType": "uint256",
              "name": "price",
              "type": "uint256"
            },
            {
              "internalType": "bool",
              "name": "active",
              "type": "bool"
            }
          ],
          "internalType": "struct Marketplace.Listing",
          "name": "",
          "type": "tuple"
        }
      ],
      "stateMutability": "view",
      "type": "function"
    },
    {
      "inputs": [],
      "name": "getAllActive",
      "outputs": [
        {
          "components": [
            {
              "internalType": "uint256",
              "name": "id",
              "type": "uint256"
            },
            {
              "internalType": "address",
              "name": "seller",
              "type": "address"
            },
            {
              "internalType": "string",
              "name": "itemName",
              "type": "string"
            },
            {
              "internalType": "uint256",
              "name": "price",
              "type": "uint256"
            },
            {
              "internalType": "bool",
              "name": "active",
              "type": "bool"
            }
          ],
          "internalType": "struct Marketplace.Listing[]",
          "name": "",
          "type": "tuple[]"
        }
      ],
      "stateMutability": "view",
      "type": "function"
    }
  ],
  "bytecode": "0x608060405234801562000010575f80fd5b5060405162001baa38038062001baa8339818101604052810190620000369190620000e1565b805f806101000a81548173ffffffffffffffffffffffffffffffffffffffff021916908373ffffffffffffffffffffffffffffffffffffffff1602179055505062000111565b5f80fd5b5f73ffffffffffffffffffffffffffffffffffffffff82169050919050565b5f620000ab8262000080565b9050919050565b620000bd816200009f565b8114620000c8575f80fd5b50565b5f81519050620000db81620000b2565b92915050565b5f60208284031215620000f957620000f86200007c565b5b5f6200010884828501620000cb565b91505092915050565b611a8b806200011f5f395ff3fe608060405234801561000f575f80fd5b5060043610610086575f3560e01c8063b47ac12111610059578063b47ac12114610110578063d96a094a1461012e578063de74e57b1461014a578063fc0c546a1461017e57610086565b8063107a274a1461008a57806340e58ee5146100ba57806344fdf249146100d6578063aaccf1ec146100f2575b5f80fd5b6100a4600480360381019061009f9190610d7d565b61019c565b6040516100b19190610f0d565b60405180910390f35b6100d460048036038101906100cf9190610d7d565b6102d9565b005b6100f060048036038101906100eb9190610f8e565b610431565b005b6100fa610656565b6040516101079190610ffa565b60405180910390f35b61011861065c565b6040516101259190611141565b60405180910390f35b61014860048036038101906101439190610d7d565b6108bf565b005b610164600480360381019061015f9190610d7d565b610bf9565b6040516101759594939291906111c7565b60405180910390f35b610186610cdc565b604051610193919061127a565b60405180910390f35b6101a4610cff565b60025f8381526020019081526020015f206040518060a00160405290815f8201548152602001600182015f9054906101000a900473ffffffffffffffffffffffffffffffffffffffff1673ffffffffffffffffffffffffffffffffffffffff1673ffffffffffffffffffffffffffffffffffffffff16815260200160028201805461022e906112c0565b80601f016020809104026020016040519081016040528092919081815260200182805461025a906112c0565b80156102a55780601f1061027c576101008083540402835291602001916102a5565b820191905f5260205f20905b81548152906001019060200180831161028857829003601f168201915b5050505050815260200160038201548152602001600482015f9054906101000a900460ff1615151515815250509050919050565b5f60025f8381526020019081526020015f209050806004015f9054906101000a900460ff1661033d576040517f08c379a00000000000000000000000000000000000000000000000000000000081526004016103349061133a565b60405180910390fd5b3373ffffffffffffffffffffffffffffffffffffffff16816001015f9054906101000a900473ffffffffffffffffffffffffffffffffffffffff1673ffffffffffffffffffffffffffffffffffffffff16146103ce576040517f08c379a00000000000000000000000000000000000000000000000000000000081526004016103c5906113a2565b60405180910390fd5b5f816004015f6101000a81548160ff0219169083151502179055503373ffffffffffffffffffffffffffffffffffffffff16827f26deca31ff8139a06c52453ce8985d34f7648a6d9af1d283c4063d052c355a0f60405160405180910390a35050565b5f8111610473576040517f08c379a000000000000000000000000000000000000000000000000000000000815260040161046a9061140a565b60405180910390fd5b5f83839050116104b8576040517f08c379a00000000000000000000000000000000000000000000000000000000081526004016104af90611472565b60405180910390fd5b5f6040518060a0016040528060015481526020013373ffffffffffffffffffffffffffffffffffffffff16815260200185858080601f0160208091040260200160405190810160405280939291908181526020018383808284375f81840152601f19601f8201169050808301925050505050505081526020018381526020016001151581525090508060025f60015481526020019081526020015f205f820151815f01556020820151816001015f6101000a81548173ffffffffffffffffffffffffffffffffffffffff021916908373ffffffffffffffffffffffffffffffffffffffff16021790555060408201518160020190816105b79190611651565b50606082015181600301556080820151816004015f6101000a81548160ff0219169083151502179055509050503373ffffffffffffffffffffffffffffffffffffffff166001547f33405c1e706a8cacd9b5975cd52db19ad760ea16bf7d2565ddba86a2ad3960108686866040516106319392919061175a565b60405180910390a360015f81548092919061064b906117b7565b919050555050505050565b60015481565b60605f60015490505f805f90505b828110156106ba5760025f8281526020019081526020015f206004015f9054906101000a900460ff16156106a75781806106a3906117b7565b9250505b80806106b2906117b7565b91505061066a565b505f8167ffffffffffffffff8111156106d6576106d5611490565b5b60405190808252806020026020018201604052801561070f57816020015b6106fc610cff565b8152602001906001900390816106f45790505b5090505f805f90505b848110156108b45760025f8281526020019081526020015f206004015f9054906101000a900460ff16156108a15760025f8281526020019081526020015f206040518060a00160405290815f8201548152602001600182015f9054906101000a900473ffffffffffffffffffffffffffffffffffffffff1673ffffffffffffffffffffffffffffffffffffffff1673ffffffffffffffffffffffffffffffffffffffff1681526020016002820180546107d0906112c0565b80601f01602080910402602001604051908101604052809291908181526020018280546107fc906112c0565b80156108475780601f1061081e57610100808354040283529160200191610847565b820191905f5260205f20905b81548152906001019060200180831161082a57829003601f168201915b5050505050815260200160038201548152602001600482015f9054906101000a900460ff161515151581525050838381518110610887576108866117fe565b5b6020026020010181905250818061089d906117b7565b9250505b80806108ac906117b7565b915050610718565b508194505050505090565b5f60025f8381526020019081526020015f209050806004015f9054906101000a900460ff16610923576040517f08c379a000000000000000000000000000000000000000000000000000000000815260040161091a90611875565b60405180910390fd5b5f73ffffffffffffffffffffffffffffffffffffffff16816001015f9054906101000a900473ffffffffffffffffffffffffffffffffffffffff1673ffffffffffffffffffffffffffffffffffffffff16036109b4576040517f08c379a00000000000000000000000000000000000000000000000000000000081526004016109ab906118dd565b60405180910390fd5b3373ffffffffffffffffffffffffffffffffffffffff16816001015f9054906101000a900473ffffffffffffffffffffffffffffffffffffffff1673ffffffffffffffffffffffffffffffffffffffff1603610a45576040517f08c379a0000000000000000000000000000000000000000000000000000000008152600401610a3c90611945565b60405180910390fd5b5f816004015f6101000a81548160ff0219169083151502179055505f805f9054906101000a900473ffffffffffffffffffffffffffffffffffffffff1673ffffffffffffffffffffffffffffffffffffffff166323b872dd33846001015f9054906101000a900473ffffffffffffffffffffffffffffffffffffffff1685600301546040518463ffffffff1660e01b8152600401610ae593929190611963565b6020604051808303815f875af1158015610b01573d5f803e3d5ffd5b505050506040513d601f19601f82011682018060405250810190610b2591906119c2565b905080610b67576040517f08c379a0000000000000000000000000000000000000000000000000000000008152600401610b5e90611a37565b60405180910390fd5b816001015f9054906101000a900473ffffffffffffffffffffffffffffffffffffffff1673ffffffffffffffffffffffffffffffffffffffff163373ffffffffffffffffffffffffffffffffffffffff16847f3fb02bfbf01f7dc3a4c6903acc6b06ca1d9af7647282593f46cbacefc288b6028560030154604051610bec9190610ffa565b60405180910390a4505050565b6002602052805f5260405f205f91509050805f015490806001015f9054906101000a900473ffffffffffffffffffffffffffffffffffffffff1690806002018054610c43906112c0565b80601f0160208091040260200160405190810160405280929190818152602001828054610c6f906112c0565b8015610cba5780601f10610c9157610100808354040283529160200191610cba565b820191905f5260205f20905b815481529060010190602001808311610c9d57829003601f168201915b505050505090806003015490806004015f9054906101000a900460ff16905085565b5f8054906101000a900473ffffffffffffffffffffffffffffffffffffffff1681565b6040518060a001604052805f81526020015f73ffffffffffffffffffffffffffffffffffffffff168152602001606081526020015f81526020015f151581525090565b5f80fd5b5f80fd5b5f819050919050565b610d5c81610d4a565b8114610d66575f80fd5b50565b5f81359050610d7781610d53565b92915050565b5f60208284031215610d9257610d91610d42565b5b5f610d9f84828501610d69565b91505092915050565b610db181610d4a565b82525050565b5f73ffffffffffffffffffffffffffffffffffffffff82169050919050565b5f610de082610db7565b9050919050565b610df081610dd6565b82525050565b5f81519050919050565b5f82825260208201905092915050565b5f5b83811015610e2d578082015181840152602081019050610e12565b5f8484015250505050565b5f601f19601f8301169050919050565b5f610e5282610df6565b610e5c8185610e00565b9350610e6c818560208601610e10565b610e7581610e38565b840191505092915050565b5f8115159050919050565b610e9481610e80565b82525050565b5f60a083015f830151610eaf5f860182610da8565b506020830151610ec26020860182610de7565b5060408301518482036040860152610eda8282610e48565b9150506060830151610eef6060860182610da8565b506080830151610f026080860182610e8b565b508091505092915050565b5f6020820190508181035f830152610f258184610e9a565b905092915050565b5f80fd5b5f80fd5b5f80fd5b5f8083601f840112610f4e57610f4d610f2d565b5b8235905067ffffffffffffffff811115610f6b57610f6a610f31565b5b602083019150836001820283011115610f8757610f86610f35565b5b9250929050565b5f805f60408486031215610fa557610fa4610d42565b5b5f84013567ffffffffffffffff811115610fc257610fc1610d46565b5b610fce86828701610f39565b93509350506020610fe186828701610d69565b9150509250925092565b610ff481610d4a565b82525050565b5f60208201905061100d5f830184610feb565b92915050565b5f81519050919050565b5f82825260208201905092915050565b5f819050602082019050919050565b5f60a083015f8301516110515f860182610da8565b5060208301516110646020860182610de7565b506040830151848203604086015261107c8282610e48565b91505060608301516110916060860182610da8565b5060808301516110a46080860182610e8b565b508091505092915050565b5f6110ba838361103c565b905092915050565b5f602082019050919050565b5f6110d882611013565b6110e2818561101d565b9350836020820285016110f48561102d565b805f5b8581101561112f578484038952815161111085826110af565b945061111b836110c2565b925060208a019950506001810190506110f7565b50829750879550505050505092915050565b5f6020820190508181035f83015261115981846110ce565b905092915050565b61116a81610dd6565b82525050565b5f82825260208201905092915050565b5f61118a82610df6565b6111948185611170565b93506111a4818560208601610e10565b6111ad81610e38565b840191505092915050565b6111c181610e80565b82525050565b5f60a0820190506111da5f830188610feb565b6111e76020830187611161565b81810360408301526111f98186611180565b90506112086060830185610feb565b61121560808301846111b8565b9695505050505050565b5f819050919050565b5f61124261123d61123884610db7565b61121f565b610db7565b9050919050565b5f61125382611228565b9050919050565b5f61126482611249565b9050919050565b6112748161125a565b82525050565b5f60208201905061128d5f83018461126b565b92915050565b7f4e487b71000000000000000000000000000000000000000000000000000000005f52602260045260245ffd5b5f60028204905060018216806112d757607f821691505b6020821081036112ea576112e9611293565b5b50919050565b7f416c726561647920696e616374697665000000000000000000000000000000005f82015250565b5f611324601083611170565b915061132f826112f0565b602082019050919050565b5f6020820190508181035f83015261135181611318565b9050919050565b7f4e6f7420796f7572206c697374696e67000000000000000000000000000000005f82015250565b5f61138c601083611170565b915061139782611358565b602082019050919050565b5f6020820190508181035f8301526113b981611380565b9050919050565b7f5072696365206d757374206265203e20300000000000000000000000000000005f82015250565b5f6113f4601183611170565b91506113ff826113c0565b602082019050919050565b5f6020820190508181035f830152611421816113e8565b9050919050565b7f4974656d206e616d6520726571756972656400000000000000000000000000005f82015250565b5f61145c601283611170565b915061146782611428565b602082019050919050565b5f6020820190508181035f83015261148981611450565b9050919050565b7f4e487b71000000000000000000000000000000000000000000000000000000005f52604160045260245ffd5b5f819050815f5260205f209050919050565b5f6020601f8301049050919050565b5f82821b905092915050565b5f600883026115197fffffffffffffffffffffffffffffffffffffffffffffffffffffffffffffffff826114de565b61152386836114de565b95508019841693508086168417925050509392505050565b5f61155561155061154b84610d4a565b61121f565b610d4a565b9050919050565b5f819050919050565b61156e8361153b565b61158261157a8261155c565b8484546114ea565b825550505050565b5f90565b61159661158a565b6115a1818484611565565b505050565b5b818110156115c4576115b95f8261158e565b6001810190506115a7565b5050565b601f821115611609576115da816114bd565b6115e3846114cf565b810160208510156115f2578190505b6116066115fe856114cf565b8301826115a6565b50505b505050565b5f82821c905092915050565b5f6116295f198460080261160e565b1980831691505092915050565b5f611641838361161a565b9150826002028217905092915050565b61165a82610df6565b67ffffffffffffffff81111561167357611672611490565b5b61167d82546112c0565b6116888282856115c8565b5f60209050601f8311600181146116b9575f84156116a7578287015190505b6116b18582611636565b865550611718565b601f1984166116c7866114bd565b5f5b828110156116ee578489015182556001820191506020850194506020810190506116c9565b8683101561170b5784890151611707601f89168261161a565b8355505b6001600288020188555050505b505050505050565b828183375f83830152505050565b5f6117398385611170565b9350611746838584611720565b61174f83610e38565b840190509392505050565b5f6040820190508181035f83015261177381858761172e565b90506117826020830184610feb565b949350505050565b7f4e487b71000000000000000000000000000000000000000000000000000000005f52601160045260245ffd5b5f6117c182610d4a565b91507fffffffffffffffffffffffffffffffffffffffffffffffffffffffffffffffff82036117f3576117f261178a565b5b600182019050919050565b7f4e487b71000000000000000000000000000000000000000000000000000000005f52603260045260245ffd5b7f4c697374696e67206e6f742061637469766500000000000000000000000000005f82015250565b5f61185f601283611170565b915061186a8261182b565b602082019050919050565b5f6020820190508181035f83015261188c81611853565b9050919050565b7f496e76616c6964206c697374696e6700000000000000000000000000000000005f82015250565b5f6118c7600f83611170565b91506118d282611893565b602082019050919050565b5f6020820190508181035f8301526118f4816118bb565b9050919050565b7f43616e6e6f742062757920796f7572206f776e206c697374696e6700000000005f82015250565b5f61192f601b83611170565b915061193a826118fb565b602082019050919050565b5f6020820190508181035f83015261195c81611923565b9050919050565b5f6060820190506119765f830186611161565b6119836020830185611161565b6119906040830184610feb565b949350505050565b6119a181610e80565b81146119ab575f80fd5b50565b5f815190506119bc81611998565b92915050565b5f602082840312156119d7576119d6610d42565b5b5f6119e4848285016119ae565b91505092915050565b7f546f6b656e207472616e73666572206661696c656400000000000000000000005f82015250565b5f611a21601583611170565b9150611a2c826119ed565b602082019050919050565b5f6020820190508181035f830152611a4e81611a15565b905091905056fea26469706673582212206b4b45c519474deb1aeedf0ad09e38bc0ee976e96c72b8aa26ac1b0eec43720164736f6c63430008140033",
  "immutableReferences": {},
  "source": "// SPDX-License-Identifier: MIT\npragma solidity ^0.8.0;\n\nimport \"@openzeppelin/contracts/token/ERC20/IERC20.sol\";\n\ncontract Marketplace {\n    struct Listing {\n        uint256 id;\n        address seller;\n        string itemName;\n        uint256 price;\n        bool active;\n    }\n\n    IERC20 public token;\n    uint256 public nextListingId;\n    mapping(uint256 => Listing) public listings;\n\n    event Listed(uint256 indexed id, address indexed seller, string itemName, uint256 price);\n    event Purchased(uint256 indexed id, address indexed buyer, address indexed seller, uint256 price);\n    event Cancelled(uint256 indexed id, address indexed seller);\n\n    constructor(address tokenAddress) {\n        token = IERC20(tokenAddress);\n    }\n\n    function createListing(string calldata itemName, uint256 price) external {\n        require(price > 0, \"Price must be > 0\");\n        require(bytes(itemName).length > 0, \"Item name required\");\n\n        Listing memory listing = Listing({\n            id: nextListingId,\n            seller: msg.sender,\n            itemName: itemName,\n            price: price,\n            active: true\n        });\n\n        listings[nextListingId] = listing;\n        emit Listed(nextListingId, msg.sender, itemName, price);\n        nextListingId++;\n    }\n\n    function buy(uint256 listingId) external {\n        Listing storage listing = listings[listingId];\n        require(listing.active, \"Listing not active\");\n        require(listing.seller != address(0), \"Invalid listing\");\n        require(listing.seller != msg.sender, \"Cannot buy your own listing\");\n\n        listing.active = false;\n\n        bool ok = token.transferFrom(msg.sender, listing.seller, listing.price);\n        require(ok, \"Token transfer failed\");\n\n        emit Purchased(listingId, msg.sender, listing.seller, listing.price);\n    }\n\n    function cancel(uint256 listingId) external {\n        Listing storage listing = listings[listingId];\n        require(listing.active, \"Already inactive\");\n        require(listing.seller == msg.sender, \"Not your listing\");\n\n        listing.active = false;\n        emit Cancelled(listingId, msg.sender);\n    }\n\n    function getListing(uint256 listingId) external view returns (Listing memory) {\n        return listings[listingId];\n    }\n\n    function getAllActive() external view returns (Listing[] memory) {\n        uint256 total = nextListingId;\n        uint256 count;\n\n        for (uint256 i = 0; i < total; i++) {\n            if (listings[i].active) count++;\n        }\n\n        Listing[] memory result = new Listing[](count);\n        uint256 idx;\n\n        for (uint256 i = 0; i < total; i++) {\n            if (listings[i].active) {\n                result[idx] = listings[i];\n                idx++;\n            }\n        }\n\n        return result;\n    }\n}\n",
  "sourcePath": "/workspace/crypto_red1/src/contracts/Marketplace.sol",
  "compiler": {
    "name": "solc",
    "version": "0.8.20+commit.a1b79de6.Emscripten.clang"
  },
  "schemaVersion": "3.4.16",
  "updatedAt": "2025-11-15T20:20:24.750Z",
  "devdoc": {
    "kind": "dev",
    "methods": {},
    "version": 1
  },
  "userdoc": {
    "kind": "user",
    "methods": {},
    "version": 1
  }
}